:1000000002C100002CC100002AC1000028C100006C
:1000100026C1000024C1000022C1000020C1000050
:100020001EC100001CC100001AC1000018C1000060
:1000300016C1000014C1000012C1000010C1000070
:100040000EC100000CC100000AC1000008C1000080
:1000500006C1000004C1000002C1000066C100002A
:10006000FEC00000F0C3000032C50000F8C0000070
:10007000F6C00000F4C00000F2C00000F0C00000B4
:10008000EEC00000ECC00000EAC00000E8C00000C4
:100090001AC400005BC50000E2C00000E0C0000020
:1000A000DEC00000DCC00000DAC00000D8C00000E4
:1000B000D6C00000D4C00000D2C00000D0C00000F4
:1000C000CEC00000CCC00000CAC000003CC400008C
:1000D0007CC50000C4C0000076C40000B5C50000A7
:1000E000BEC0000000002100240027002A002D00CF
:1000F0003000330001010000040107010A01000083
:100100002200250028002B002E00310034000201BF
:100110000000050108010B0100002000230026005B
:1001200029002C002F00320000010000030106010D
:10013000090105050505070508080808020202026D
:100140000A0A080804040404010101010101010173
:100150000303030303030303040707070C0C0C0C3E
:100160000C0C0C0C02020202060606060606060627
:100170000B0B0B0B0B0B0B0B0102102020080810B4
:100180002040102040800201020108040201010207
:1001900004081020408080402010080402018004E0
:1001A000020180402010080402010804020101023B
:1001B0000408102040800102040810204080000044
:1001C000090A02080B0C0D070603040100000000D9
:1001D000000000000000000000000000000000001F
:1001E0000000000000000000000011100F000000DF
:1001F00000000000000000000000000000000000FF
:1002000000000000930711241FBECFEFD1E2DEBF34
:10021000CDBF00E00CBF12E0A0E0B2E0EEE7F4E1F9
:1002200000E00BBF02C007900D92A831B107D9F7CB
:100230001BBE14E0A8E1B2E001C01D92A93CB107C9
:10024000E1F712E0C6E0D2E004C02297FE010E946E
:10025000390AC430D107C9F79CD70C943D0AD0CED7
:10026000CF92DF92EF92FF920F931F9386E160E0AF
:100270001CD282E090E0FAD086E161E016D285E0FF
:1002800090E0F4D086E160E010D287E161E020E404
:1002900032E44FE050E03BD2F62EE72ED82EC92EA6
:1002A00001E414E024E930E040E050E00E941C0A40
:1002B000C801BA01A9012AE030E00E949B09C801E7
:1002C00060E072E00E94D9096F2D7E2D8D2D9C2D4E
:1002D0002AE330E040E050E00E941C0AC801BA0165
:1002E000A9012AE030E00E949B09C80165E072E0A4
:1002F0000E94D909C80182D764E670E080E090E0EE
:100300005CD01F910F91FF90EF90DF90CF900895F8
:1003100086E161E017D187E160E014D181E494E0E7
:1003200040E855E260E070E0CEC41F920F920FB635
:100330000F9211242F933F938F939F93AF93BF936B
:1003400080911C0290911D02A0911E02B0911F028B
:10035000309120020196A11DB11D232F2D5F2D3755
:1003600020F02D570196A11DB11D209320028093EE
:100370001C0290931D02A0931E02B0931F02809155
:10038000180290911902A0911A02B0911B020196D5
:10039000A11DB11D8093180290931902A0931A0217
:1003A000B0931B02BF91AF919F918F913F912F917D
:1003B0000F900FBE0F901F9018959B01AC017FB757
:1003C000F8948091180290911902A0911A02B091AC
:1003D0001B0266B5A89B05C06F3F19F00196A11DD1
:1003E000B11D7FBFBA2FA92F982F8827860F911D87
:1003F000A11DB11D62E0880F991FAA1FBB1F6A953E
:10040000D1F7BC012DC0FFB7F894809118029091EC
:100410001902A0911A02B0911B02E6B5A89B05C073
:10042000EF3F19F00196A11DB11DFFBFBA2FA92FF3
:10043000982F88278E0F911DA11DB11DE2E0880F16
:10044000991FAA1FBB1FEA95D1F7861B970B885EE1
:100450009340C8F2215030404040504068517C4F9A
:10046000211531054105510571F60895019739F0BF
:10047000880F991F880F991F02970197F1F7089528
:10048000789484B5826084BD84B5816084BD85B56F
:10049000826085BD85B5816085BDEEE6F0E0808136
:1004A00081608083E1E8F0E0108280818260808357
:1004B000808181608083E0E8F0E0808181608083DA
:1004C000E1EBF0E0808184608083E0EBF0E080810C
:1004D00081608083E1E9F0E08081826080838081B7
:1004E00081608083E0E9F0E0808181608083E1EADF
:1004F000F0E0808182608083808181608083E0EA97
:10050000F0E0808181608083E1E2F1E080818260BF
:100510008083808181608083E0E2F1E0808181607E
:100520008083EAE7F0E0808184608083808182605C
:100530008083808181608083808180688083109245
:10054000C1000895CF93DF93482F50E0CA01885827
:100550009E4FFC0134914E5C5E4FFA0184918823DA
:1005600069F190E0880F991FFC01EC51FF4FA591B4
:10057000B491FC01E250FF4FC591D491662351F430
:100580002FB7F8948C91932F909589238C93888121
:1005900089230BC0623061F42FB7F8948C91932FAC
:1005A000909589238C938881832B88832FBF06C0E5
:1005B0009FB7F8948C91832B8C939FBFDF91CF9141
:1005C0000895893009F449C08A30A0F4843051F18B
:1005D000853040F4823079F1833000F5813009F0C4
:1005E00063C026C0873079F1883098F5863009F0ED
:1005F0005BC025C08D3009F442C08E3028F48B30AA
:10060000B1F18C30C0F52DC0803109F442C0813188
:1006100009F445C08F3009F047C037C08091800091
:100620008F7703C0809180008F7D80938000089534
:1006300084B58F7702C084B58F7D84BD0895809185
:10064000B0008F7703C08091B0008F7D8093B000A1
:100650000895809190008F7707C0809190008F7DE2
:1006600003C080919000877F8093900008958091CF
:10067000A0008F7707C08091A0008F7D03C080917C
:10068000A000877F8093A0000895809120018F773C
:1006900003C0809120018F7D809320010895809177
:1006A0002001877F809320010895FF920F931F936D
:1006B000F62E482F50E0CA0182549E4FFC0124912F
:1006C000CA0188589E4FFC0114914E5C5E4FFA019E
:1006D00004910023C1F0222311F0822F72DFE02F5A
:1006E000F0E0EE0FFF1FE250FF4FA591B4919FB7CE
:1006F000F894FF2021F48C911095812302C08C91F5
:10070000812B8C939FBF1F910F91FF9008958F9223
:100710009F92AF92BF92CF92DF92EF92FF920F9390
:100720001F93CF93DF93A82FB0E0CD0188589E4F41
:10073000FC018490AE5CBE4FFD018491662311F4F0
:10074000992401C0982C6FEFA62E6FEFB62E6FEF95
:10075000C62E6FE0D62EA222B322C422D522682F45
:1007600070E0660F771F685E7E4FEE24FF248701DE
:10077000FB01A591B4910BC0EA14FB040C051D0507
:1007800009F44DC00894E11CF11C011D111D8C9150
:100790008821891589F30CC0EA14FB040C051D059A
:1007A00009F43DC00894E11CF11C011D111D03C09A
:1007B000FB01A591B4918C918821891569F720E0FE
:1007C00030E040E050E0FB01C591D4910FC0DA0168
:1007D000C9018E0D9F1DA01FB11F8A159B05AC0579
:1007E000BD05E9F02F5F3F4F4F4F5F4F8881882154
:1007F000891569F3CA01B90125E130E040E050E014
:10080000DAD59B01AC01205F3F4F4F4F5F4F84E033
:1008100056954795379527958A95D1F704C020E0DE
:1008200030E040E050E0B901CA01DF91CF911F9163
:100830000F91FF90EF90DF90CF90BF90AF909F907F
:100840008F90089508951F920F920FB60F920BB6D6
:100850000F9211242F933F934F938F939F93EF9376
:10086000FF938091C00082FD1DC04091C600209181
:100870006102309162022F5F3F4F2F733070809181
:100880006302909164022817390771F0E0916102C8
:10089000F0916202EF5DFD4F40833093620220933E
:1008A000610202C08091C600FF91EF919F918F91EC
:1008B0004F913F912F910F900BBE0F900FBE0F9055
:1008C0001F90189508951F920F920FB60F920BB6B6
:1008D0000F9211242F933F934F938F939F93EF93F6
:1008E000FF938091C80082FD1DC04091CE002091F1
:1008F000E9023091EA022F5F3F4F2F7330708091F1
:10090000EB029091EC022817390771F0E091E902AF
:10091000F091EA02E755FD4F40833093EA022093BD
:10092000E90202C08091CE00FF91EF919F918F91DB
:100930004F913F912F910F900BBE0F900FBE0F90D4
:100940001F90189508951F920F920FB60F920BB635
:100950000F9211242F933F934F938F939F93EF9375
:10096000FF938091D00082FD1DC04091D600209160
:100970007103309172032F5F3F4F2F73307080915E
:100980007303909174032817390771F0E091710394
:10099000F0917203EF5CFC4F40833093720320931D
:1009A000710302C08091D600FF91EF919F918F91CA
:1009B0004F913F912F910F900BBE0F900FBE0F9054
:1009C0001F90189508951F920F920FB60F920BB6B5
:1009D0000F9211242F933F934F938F939F93EF93F5
:1009E000FF938091300182FD1DC04091360120911E
:1009F000F9033091FA032F5F3F4F2F7330708091CE
:100A0000FB039091FC032817390771F0E091F9037B
:100A1000F091FA03E754FC4F40833093FA0320939C
:100A2000F90302C080913601FF91EF919F918F9160
:100A30004F913F912F910F900BBE0F900FBE0F90D3
:100A40001F901895E0914D04F0914E04E05CFF4F2B
:100A50008191919120813181821B930B8F739070D2
:100A6000892B09F0EFDEE0916F04F0917004E05CF7
:100A7000FF4F8191919120813181821B930B8F7364
:100A80009070892B09F01EDFE0919104F09192049F
:100A9000E05CFF4F8191919120813181821B930B0A
:100AA0008F739070892B09F04DDFE091B304F091C2
:100AB000B404E05CFF4F8191919120813181821BD0
:100AC000930B8F739070892B09F07CCF08951F9240
:100AD0000F920FB60F920BB60F9211242F933F93E4
:100AE0008F939F93EF93FF932091A5023091A602DD
:100AF0008091A7029091A8022817390731F48091BC
:100B0000C1008F7D8093C10014C0E091A702F091D5
:100B1000A802EB59FD4F20818091A7029091A80275
:100B200001968F7390709093A8028093A7022093F0
:100B3000C600FF91EF919F918F913F912F910F9060
:100B40000BBE0F900FBE0F901F9018951F920F9223
:100B50000FB60F920BB60F9211242F933F938F93E2
:100B60009F93EF93FF9320912D0330912E0380915B
:100B70002F03909130032817390731F48091C90071
:100B80008F7D8093C90014C0E0912F03F091300352
:100B9000E351FD4F208180912F0390913003019606
:100BA0008F7390709093300380932F032093CE0027
:100BB000FF91EF919F918F913F912F910F900BBEDD
:100BC0000F900FBE0F901F9018951F920F920FB6A7
:100BD0000F920BB60F9211242F933F938F939F93F5
:100BE000EF93FF932091B5033091B6038091B70343
:100BF0009091B8032817390731F48091D1008F7D87
:100C00008093D10014C0E091B703F091B803EB5882
:100C1000FC4F20818091B7039091B80301968F73A8
:100C200090709093B8038093B7032093D600FF9100
:100C3000EF919F918F913F912F910F900BBE0F904D
:100C40000FBE0F901F9018951F920F920FB60F9224
:100C50000BB60F9211242F933F938F939F93EF9393
:100C6000FF9320913D0430913E0480913F04909188
:100C700040042817390731F4809131018F7D80932A
:100C8000310114C0E0913F04F0914004E350FC4F67
:100C9000208180913F049091400401968F73907061
:100CA0009093400480933F0420933601FF91EF918D
:100CB0009F918F913F912F910F900BBE0F900FBE80
:100CC0000F901F901895AF92BF92DF92EF92FF9214
:100CD0000F931F93CF93DF93EC017A018B01DD24F7
:100CE000403081EE580780E0680780E0780711F017
:100CF000DD24D39491E0A92EB12CEC89FD89DD206F
:100D000069F0C50108A002C0880F991F0A94E2F794
:100D1000808360E079E08DE390E005C0108260E8B8
:100D200074E88EE190E0A801970164D3215030402F
:100D300040405040569547953795279580E12030A3
:100D4000380720F0DD2011F0DD24D7CFE889F989BC
:100D50003083EA89FB89208319A2EE89FF894081CB
:100D600021E030E0C9010C8C02C0880F991F0A9461
:100D7000E2F7482B4083EE89FF894081C9010D8C41
:100D800002C0880F991F0A94E2F7482B4083EE892E
:100D9000FF894081C9010E8C02C0880F991F0A94F7
:100DA000E2F7482B4083EE89FF8980810F8C02C0D7
:100DB000220F331F0A94E2F7209528232083DF9126
:100DC000CF911F910F91FF90EF90DF90BF90AF9068
:100DD0000895DC011C96ED91FC911D97E05CFF4F9E
:100DE0002191319180819181281B390B2F733070B3
:100DF000C9010895DC011C96ED91FC911D97E05C02
:100E0000FF4F20813181E054F040DF01AE5BBF4FE6
:100E10008D919C9111972817390719F42FEF3FEF07
:100E200007C08D919C91E80FF91F8081282F30E039
:100E3000C9010895DC011C96ED91FC911D97E05CC1
:100E4000FF4F20813181E054F040DF01AE5BBF4FA6
:100E50008D919C9111972817390719F42FEF3FEFC7
:100E600010C08D919C911197E80FF91F20818D91F1
:100E70009C91119701968F73907011969C938E930D
:100E800030E0C9010895DC0191968C9191978823F7
:100E900039F05496ED91FC915597808186FFF9CFFA
:100EA00091961C920895CF93DF93EC01EE85FF8518
:100EB000E05CFF4F20813181E054F0402F5F3F4FD5
:100EC0002F733070DF01AE5BBF4F8D919C911197F6
:100ED00028173907D1F3E05CFF4F80819181E054FE
:100EE000F040E80FF91F6083EE85FF85E05CFF4F5F
:100EF00031832083EE89FF89208181E090E00F8C8F
:100F000002C0880F991F0A94E2F7282B208381E002
:100F100089A3EC89FD8980818064808381E090E0F1
:100F2000DF91CF9108951F931092440410924304CF
:100F300028EE33E040E050E020934504309346042F
:100F400040934704509348046CE072E0709342046D
:100F50006093410481E292E090934E0480934D04AB
:100F600085E692E09093500480934F0485EC90E0E6
:100F7000909352048093510484EC90E09093540435
:100F80008093530480EC90E0909356048093550432
:100F900081EC90E0909358048093570482EC90E0A9
:100FA00090935A048093590486EC90E090935C04EB
:100FB00080935B0414E010935D04B3E0B0935E048F
:100FC000A7E0A0935F04F5E0F0936004E1E0E09314
:100FD00061041092660410926504209367043093B4
:100FE00068044093690450936A04709364046093A6
:100FF000630489EA92E09093700480936F048DEE0D
:1010000092E090937204809371048DEC90E0909341
:101010007404809373048CEC90E090937604809336
:10102000750488EC90E0909378048093770489ECC1
:1010300090E090937A04809379048AEC90E0909306
:101040007C0480937B048EEC90E090937E048093EC
:101050007D0410937F04B0938004A0938104F093E7
:101060008204E093830410928804109287042093F2
:10107000890430938A0440938B0450938C047093BA
:1010800086046093850481E393E0909392048093B7
:10109000910485E793E0909394048093930485ED05
:1010A00090E0909396048093950484ED90E0909363
:1010B00098048093970480ED90E090939A04809335
:1010C000990481ED90E090939C0480939B0482EDC1
:1010D00090E090939E0480939D0486ED90E0909321
:1010E000A00480939F041093A104B093A204A09342
:1010F000A304F093A404E093A5041092AA04109210
:10110000A9042093AB043093AC044093AD045093F6
:10111000AE047093A8046093A70489EB93E09093C6
:10112000B4048093B3048DEF93E09093B60480935E
:10113000B50485E391E09093B8048093B70484E309
:1011400091E09093BA048093B90480E391E0909386
:10115000BC048093BB0481E391E09093BE04809330
:10116000BD0482E391E09093C0048093BF0486E3C2
:1011700091E09093C2048093C1041093C304B09390
:10118000C404A093C504F093C604E093C7041F9160
:101190000895CF93DF9374D9BBD8C2E2D5E060D86D
:1011A0002097E9F34FDCFBCFCF92DF92EF92FF92D3
:1011B0000F931F93CF93DF937C016B018A01C0E0F3
:1011C000D0E00FC0D6016D916D01D701ED91FC917A
:1011D0000190F081E02DC7011995C80FD91F01506A
:1011E00010400115110571F7CE01DF91CF911F91CC
:1011F0000F91FF90EF90DF90CF900895EF92FF92C4
:101200000F931F938C01DC01ED91FC910190F08113
:10121000E02D6DE019957C01D801ED91FC910190D4
:10122000F081E02DC8016AE019959C012E0D3F1D4B
:10123000C9011F910F91FF90EF900895CF93DF9315
:10124000EC016115710519F420E030E00FC0DB01FD
:101250000D900020E9F71197A61BB70BE881F981E3
:101260000280F381E02DAD0119959C01C901DF9148
:10127000CF9108954F925F927F928F929F92AF92FB
:10128000BF92CF92DF92EF92FF920F931F93DF9363
:10129000CF93CDB7DEB7A1970FB6F894DEBF0FBEE0
:1012A000CDBF2C01742ECB01223008F42AE019A204
:1012B00031E2C32ED12CCC0EDD1E822E9924AA241D
:1012C000BB24672D752FA501940194D079018A0163
:1012D000C801B701A50194016ED0472D461B0894A3
:1012E000C108D1084A3014F4405D01C0495CF601E0
:1012F0004083E114F1040105110521F07E2C5F2DDE
:10130000C801DFCFC201B60199DFA1960FB6F894EC
:10131000DEBF0FBECDBFCF91DF911F910F91FF9028
:10132000EF90DF90CF90BF90AF909F908F907F9085
:101330005F904F900895CF92DF92EF92FF920F93BC
:101340001F93CF93DF93EC016A017B0121153105D7
:1013500041F4E881F9810190F081E02D642F199525
:101360001DC02A303105C9F477FF16C0E881F98124
:101370000190F081E02D6DE219958C0144275527ED
:10138000BA014C195D096E097F09CE012AE072DFAE
:101390009801280F391F03C02AE06CDF9C01C901A6
:1013A000DF91CF911F910F91FF90EF90DF90CF9041
:1013B000089544CF0895629FD001739FF001829FEA
:1013C000E00DF11D649FE00DF11D929FF00D839FD4
:1013D000F00D749FF00D659FF00D9927729FB00D71
:1013E000E11DF91F639FB00DE11DF91FBD01CF0184
:1013F00011240895A1E21A2EAA1BBB1BFD010DC0EA
:10140000AA1FBB1FEE1FFF1FA217B307E407F507B4
:1014100020F0A21BB30BE40BF50B661F771F881F90
:10142000991F1A9469F760957095809590959B0126
:10143000AC01BD01CF01089597FB092E05260ED002
:1014400057FD04D0D7DF0AD0001C38F450954095E2
:10145000309521953F4F4F4F5F4F0895F6F7909588
:101460008095709561957F4F8F4F9F4F0895EE0F38
:0E147000FF1F0590F491E02D1994F894FFCF22
:10147E00696E2C2000636D00000000005307D40835
:08148E00E9061A07FA064307FC
:00000001FF
